32019030100000142000962067631531534530174753****JOAO MACEDO   BAR DO JOAO       
5201903010000013200556418150633123****7687145607MARIA JOSEFINALOJA DO O - MATRIZ
3201903010000012200845152540736777****1313172712MARCOS PEREIRAMERCADO DA AVENIDA
2201903010000011200096206760173648****0099234234JOAO MACEDO   BAR DO JOAO       
1201903010000015200096206760171234****7890233000JOAO MACEDO   BAR DO JOaO       
2201903010000010700845152540738723****9987123333MARCOS PEREIRAMERCADO DA AVENIDA
2201903010000050200845152540738473****1231231233MARCOS PEREIRAMERCADO DA AVENIDA
3201903010000060200232702980566777****1313172712JOSE COSTA    MERCEARIA 3 IRMAOS
1201903010000020000556418150631234****3324090002MARIA JOSEFINALOJA DO O - MATRIZ
5201903010000080200845152540733123****7687145607MARCOS PEREIRAMERCADO DA AVENIDA
2201903010000010200232702980568473****1231231233JOSE COSTA    MERCEARIA 3 IRMAOS
3201903010000610200232702980566777****1313172712JOSE COSTA    MERCEARIA 3 IRMAOS
4201903010000015232556418150631234****6678100000MARIA JOSEFINALOJA DO O - FILIAL
8201903010000010203845152540732344****1222123222MARCOS PEREIRAMERCADO DA AVENIDA
3201903010000010300232702980566777****1313172712JOSE COSTA    MERCEARIA 3 IRMAOS
9201903010000010200556418150636228****9090000000MARIA JOSEFINALOJA DO O - MATRIZ
4201906010000050617845152540731234****2231100000MARCOS PEREIRAMERCADO DA AVENIDA
2201903010000010900232702980568723****9987123333JOSE COSTA    MERCEARIA 3 IRMAOS
8201903010000000200845152540732344****1222123222MARCOS PEREIRAMERCADO DA AVENIDA
2201903010000000500232702980567677****8778141808JOSE COSTA    MERCEARIA 3 IRMAOS
3201903010000019200845152540736777****1313172712MARCOS PEREIRAMERCADO DA AVENIDA